:100000000C941B010C944C010C944C010C944C016D
:100010000C944C010C944C010C944C010C944C012C
:100020000C944C010C944C010C944C010C944C011C
:100030000C944C010C944C010C944C010C944C010C
:100040000C944C010C944C010C944C010C944C01FC
:100050000C944C010C944C010C944C010C94F60D36
:100060000C944C010C946A0E0C94400E0C944C01B0
:100070000C944C010C944C010C944C010C944C01CC
:100080000C944C010C944C010C944C010C944C01BC
:100090000C944C010C944C010C944C010C944C01AC
:1000A0000C944C010C944C010C944C010C944C019C
:1000B0000C944C010C944C010C944C010C944C018C
:1000C0000C944C010C944C010C944C010C944C017C
:1000D0000C944C010C944C010C944C010C944C016C
:1000E0000C944C010C949D010C9495010C94990175
:1000F0000C9468020C94A4010C9446020C94B40174
:100100000C94D6110C947E010C94BC010C94370213
:100110000C94D4010C94D0010C94AA010C94CA0143
:100120000C94C2010C9483010C940A020C94A1015A
:100130000C945A020C94C6010C94ED020C94A0028B
:100140000C94B8010C94AE01000022002500280098
:100150002B002E00310034000201000005010801CF
:100160000B0105050505070508080808020202023B
:100170000A0A080804040404010101010101010143
:100180000303030303030303040707070C0C0C0C0E
:100190000C0C0C0C020202020606060606060606F7
:1001A0000B0B0B0B0B0B0B0B010210202008081084
:1001B00020401020408002010201080402010102D7
:1001C00004081020408080402010080402018004B0
:1001D000020180402010080402010804020101020B
:1001E0000408102040800102040810204080000014
:1001F0000A0B02090C0D0E080703040100000000A1
:1002000000000000000000000000000000000000EE
:1002100000000000000000000000121110000000AB
:1002200000000000000000000000000000000000CE
:1002300000000000D61111241FBECFEFDFEFDEBF9C
:10024000CDBF00E00CBF14E0A0E0B2E0E2EEF6E2C9
:1002500000E00BBF02C007900D92AA35B107D9F795
:1002600028E0AAE5B4E001C01D92A132B207E1F78F
:1002700011E0CBE1D1E000E006C021970109802F19
:10028000FE010E940312CA31D10780E00807A9F7D6
:100290000E94A00E0C946F130C940000282F30E0E5
:1002A000F901E251FE4F9491F901E855FE4F449156
:1002B0002E593E4FF9012491222309F435C0992388
:1002C00011F191509231F8F4E92FF0E08827E459C8
:1002D000FE4F8F4F0C9403129D01A1017E019501E9
:1002E00099018301A401AA01AE01B401B801BC01C6
:1002F000C201C6018301CA01D001D40180918000EE
:100300008F7780938000E22FF0E0EE0FFF1FE85B15
:10031000FE4FA591B4918FB7F894EC91611148C04C
:1003200040954E234C938FBF0895809180008F7D20
:10033000E8CF80918000877FE4CF84B58F7784BD3C
:10034000E2CF84B58F7DFBCF8091B0008F77809313
:10035000B000D9CF8091B0008F7DF9CF809190000F
:100360008F7780939000CFCF809190008F7DF9CFD1
:1003700080919000877FF5CF8091A0008F77809348
:10038000A000C1CF8091A0008F7DF9CF8091A00007
:10039000877FF5CF809120018F7780932001B3CFA5
:1003A000809120018F7DF9CF80912001877FF5CF4B
:1003B0004E2BB8CF8230910538F0880F991F880FE7
:1003C000991F05970197F1F708953FB7F894809129
:1003D000190890911A08A0911B08B0911C0826B525
:1003E000A89B05C02F3F19F00196A11DB11D3FBF6D
:1003F000BA2FA92F982F8827BC01CD01620F711D3C
:10040000811D911D42E0660F771F881F991F4A9535
:10041000D1F70895AF92BF92CF92DF92EF92FF9201
:100420000F931F93CF93DF936C017B018B01040F1C
:10043000151FEB015E01AE18BF08C017D10759F0B8
:100440006991D601ED91FC910190F081E02DC601FA
:100450001995892B79F7C501DF91CF911F910F91E4
:10046000FF90EF90DF90CF90BF90AF900895FC0188
:10047000538D448D252F30E0842F90E0821B930B09
:10048000541710F0CF96089501970895FC01918DAF
:10049000828D981761F0A28DAE0FBF2FB11D5D96B2
:1004A0008C91928D9F5F9F73928F90E008958FEF54
:1004B0009FEF0895FC01918D828D981731F0828D08
:1004C000E80FF11D858D90E008958FEF9FEF08955F
:1004D000FC01918D228D892F90E0805C9F4F821BC3
:1004E00091098F73992708958FE497E00E9468021D
:1004F00021E0892B09F420E0822F0895FC01A48DCE
:10050000A80FB92FB11DA35ABF4F2C91848D90E035
:1005100001968F739927848FA689B7892C93A08918
:10052000B1898C91837080648C93938D848D9813A2
:1005300006C00288F389E02D80818F7D8083089535
:10054000EF92FF920F931F93CF93DF93EC0181E023
:10055000888F9B8D8C8D98131AC0E889F9898081CA
:1005600085FF15C09FB7F894EE89FF896083E889FD
:10057000F98980818370806480839FBF81E090E0EF
:10058000DF91CF911F910F91FF90EF900895F62E7C
:100590000B8D10E00F5F1F4F0F731127E02E8C8D16
:1005A0008E110CC00FB607FCFACFE889F98980815B
:1005B00085FFF5CFCE010E947E02F1CFEB8DEC0FCF
:1005C000FD2FF11DE35AFF4FF0829FB7F8940B8F78
:1005D000EA89FB8980818062CFCFCF93DF93EC01E2
:1005E000888D8823B9F0AA89BB89E889F9898C911B
:1005F00085FD03C0808186FD0DC00FB607FCF7CFD7
:100600008C9185FFF2CF808185FFEDCFCE010E94D6
:100610007E02E9CFDF91CF91089580E090E0892BB1
:1006200029F00E94740281110E94000080E090E095
:10063000892B49F080E090E0892B29F00E9400008E
:1006400081110E94000080E090E0892B49F080E059
:1006500090E0892B29F00E94000081110E94000087
:1006600080E090E0892B49F080E090E0892B29F030
:100670000E94000081110C940000089520915D04F7
:10068000209530E0F901EA5DFC4F908190952A5D5C
:100690003D4FD9018C9140915B0450915C044250D4
:1006A0005109EDE5F4E031969F012D5534402417B2
:1006B000350770F420819227292F30E0D901AA5DF7
:1006C000BC4F9C9198272A5D3D4FD9018C91EBCF6F
:1006D000089523E030E030935C0420935B04EDE563
:1006E000F4E090913C079083805881836283089561
:1006F0000F931F93582F577001E010E020E030E077
:1007000004C0000F111F221F331F5A95D2F723E098
:10071000969587952A95E1F79927E0914607F091FC
:100720004707662321F0E0914C07F0914D07E80F51
:10073000F91F8081442329F0082B00831F910F911A
:10074000089500950823F9CF2F923F924F925F9220
:100750006F927F928F929F92AF92BF92CF92DF92D1
:10076000EF92FF920F931F93CF93DF93CDB7DEB736
:10077000C354D1090FB6F894DEBF0FBECDBF10E051
:1007800000E0F801EE0FFF1FE453F94F0190F081F4
:10079000E02D309749F041E08081811101C040E0B7
:1007A00060E0C8010E9478030F5F1F4F08331105F6
:1007B00041F700913D0710913E072CE836E039AF34
:1007C00028AF780130E4E30EF11CF8012CE836E0A4
:1007D000D9018D919D919D01009729F0DC018D91AA
:1007E0009C91918380833296EE16FF0689F7D12C77
:1007F000C12CF601EE0FFF1FE45EF94F0190F0816E
:10080000E02D309749F041E08081811101C040E046
:1008100061E0C6010E947803BFEFCB1ADB0AE8E370
:10082000CE16D10431F74CED55E0E0914907F09137
:100830004A079F01205C3F4FDA018D919D91AD01E8
:10084000009729F0DC018D919C91918380833296F1
:100850002E173F0789F7E4EBF5E0FBAFEAAFF701AE
:1008600008591F4F84EB95E0DC012D913D91CD019E
:100870002115310529F0D9012D913C913183208337
:1008800032960E171F0781F7ECE8F5E0FDAFECAFED
:10089000E0914007F09141079F01205B3F4F0CE83A
:1008A00015E0D8018D919D918D01009749F0DC01F3
:1008B0004D915D916D917C914083518362837383EF
:1008C00034962E173F0769F7E4E6F5E0FFAFEEAF89
:1008D000E0914307F09144079F0120563F4F84E683
:1008E00095E0DC01CD90DD90CD01C114D104F1F093
:1008F000D601EC901196FC90119712960C911297DC
:1009000013961C91139714967C91149715966C91DD
:10091000159716965C91169717964C91E082F18286
:1009200002831383748365835683478338962E1717
:100930003F07B9F610925C0410925B048091620547
:1009400090916305DC01ED91FC910084F185E02D2F
:100950001995892B09F483C08091620590916305F4
:10096000DC01ED91FC910084F185E02D1995209139
:100970005B0430915C04A0916205B0916305ED9138
:10098000FC9111970084F185E02D2817390768F450
:10099000CD01199590935C0480935B0480915F0571
:1009A000909160050E94DA01D7CFCD011995813071
:1009B00091400CF054C08091620590916305DC0178
:1009C000ED91FC910084F185E02D199506970CF4CA
:1009D00046C04DE5842E44E0942E8401E0905B04F3
:1009E000F0905C04C8018D5594408E159F0578F4F5
:1009F0008091620590916305DC01ED91FC91028488
:100A0000F385E02D1995F80181938F01E7CF1091BF
:100A10005E048FEB810F853080F00E943E039701CA
:100A2000235A3B4FF9013297408121503109D901B6
:100A30002C91342F2817390791F490915D048091FF
:100A40003C07981709F4CDC0809162059091630529
:100A5000DC01ED91FC910680F781E02D1995409124
:100A600046075091470730E020E0F901EE0FFF1FE5
:100A7000E453F94F0190F081E02D309799F0D901BE
:100A800083E0B695A7958A95E1F7A40FB51F8C91E1
:100A900090E0622F677002C0959587956A95E2F79E
:100AA000817080832F5F3F4F28333105F1F68091AD
:100AB0003D0790913E07BC01605C7F4FDC01E8ADD3
:100AC000F9AD21913191F9AFE8AF2115310531F040
:100AD0004D915C911197F9015183408312966A17E9
:100AE0007B0769F7FB0188599F4FAAADBBAD4D91BC
:100AF0005D91BBAFAAAF4115510529F0208131812D
:100B0000DA012D933C9332968E179F0771F7E0918F
:100B10004007F0914107CF01805B9F4FACADBDAD69
:100B20002D913D91BDAFACAF2115310551F0408104
:100B3000518162817381D9014D935D936D937C9353
:100B4000139734968E179F0749F7E0914307F0916A
:100B50004407CF0180569F4FAEADBFADED90FD90E5
:100B6000BFAFAEAFE114F104F1F0008111817281E9
:100B700063815481458136812781D7010C93119679
:100B80001C93119712967C93129713966C9313975C
:100B900014965C93149715964C93159716963C9360
:100BA000169717962C9338968E179F07A9F6CD5B4C
:100BB000DF4F0FB6F894DEBF0FBECDBFDF91CF91F0
:100BC0001F910F91FF90EF90DF90CF90BF90AF906B
:100BD0009F908F907F906F905F904F903F902F905D
:100BE0000895B2E0EB1AF108F0925C04E0925B0425
:100BF00080915F0490916004582E492E60906104AA
:100C000070906204762467247624F0906104209129
:100C1000630430E01F3009F48AC5A0F5133009F4ED
:100C200080C158F4113009F4F5C3123009F484C4BA
:100C300061E070E0812F90E022C0153009F457C5C3
:100C400008F40BC51630A1F720913F0780914207A9
:100C500090E0880F991FE22FF0E08E0F9F1F4091C8
:100C6000450704E0409FA0011124480F591F441676
:100C7000550608F449C062E070E086E090E00E940A
:100C800069034FC0123409F408C798F4103109F40D
:100C900062C2113469F684E090E090935C04809322
:100CA0005B0410935E0410925F0488E080936004FC
:100CB00038C0143409F464C608F4DDC5153409F0ED
:100CC000B7CF8D3AFEED9F0709F07DC710925A0409
:100CD00085E480935E048EE780935F0481E2E8E31D
:100CE000F4E0DE01119601900D928A95E1F7FE0184
:100CF0003196A0E6B4E081919D012D5534408823C2
:100D000009F46FC78D93F7CF4E165F06D8F4440CE5
:100D1000551CE0913D07F0913E07E40DF51D7182F1
:100D2000608280915B0490915C04029681309140D6
:100D300008F45AC580915E0464E070E090E00E947F
:100D4000690352C548165906F0F5A30170E060E04A
:100D5000809140079091410740FC1CC092012E1BDE
:100D60003F0BF901EE0FFF1FEC7FF370E80FF91F47
:100D700080819181A281B381AA27BB27BA0155271F
:100D80004427842B952BA62BB72B80839183A2839A
:100D9000B383C7CFE095F095E40DF51DEE0FFF1F6F
:100DA000EC7FF370E80FF91F608071808280938080
:100DB0006624772446295729682979294083518355
:100DC00062837383AECF9201237033274301B12C2A
:100DD000A12CC12CD12C7601E0914307F09144075E
:100DE0002115310549F5481A590A440C551C38EFAC
:100DF000432237E05322E40DF51D5080618072805C
:100E00001381B481A581940140E050E060E070E07E
:100E100080E090E000E30E940B1225292083632AE2
:100E20006182742A7282152B1383B62BB483A72B8D
:100E3000A5838683978375CF2130310541F55FEF18
:100E4000451A550A481A590A440C551C68EF46229F
:100E500067E05622E40DF51D508061807280138199
:100E6000B681A7819401A501B601C70100E20E94E5
:100E70000B12522A5082632A6182742A7282152BC5
:100E80001383648375838B2B86839A2BD3CF223075
:100E9000310529F5A2E04A0E511C481A590A440CA2
:100EA000551CB8EF4B22B7E05B22E40DF51D5080D6
:100EB000618074801581B681A7819401A501B60176
:100EC000C70100E10E940B12522A5082632A6182FC
:100ED00042835383762A7482172B1583D4CF03E081
:100EE000400E511C481A590A440C551C18EF412257
:100EF00017E05122E40DF51D528143813481258193
:100F000096818781808291825A2952834B2943831B
:100F10003C2934832D2925839E2996838F29878315
:100F200000CFC301019763E070E08D379105C8F4ED
:100F30006201C60CD71C40913F07E0914207F0E0E8
:100F4000EE0FFF1FE40FF11D8091450724E0829F03
:100F5000C00111248E0F9F1FC816D90628F062E029
:100F600070E083E090E08BCE660C771CC3010396A3
:100F700090935C0480935B04ADE5B4E011969D0111
:100F80002D5534402817390710F41C92F7CF93E001
:100F900090935E04835080935F04E0904307F09049
:100FA0004407A0904007B0904107A0913D07B09141
:100FB0003E07BAA7A9A7A42FB0E0BBABAAAB83E0BA
:100FC00090E01C012E1A3F0A3D0160947094C414F5
:100FD000D50409F4A6CEAAA9BBA94A165B0660F4FB
:100FE0009201220F331FA9A5BAA52A0F3B1FD901D1
:100FF0008C9111963C911AC04E165F0670F540FC1C
:1010000022C0C201AAA9BBA98A1B9B0B880F991FEA
:101010008C7F93708A0D9B1DDC014D915D916D91CC
:101020007C91AB0166277727842F352FD401139647
:101030003C93139714968C93B2E08B0E911C0FEF98
:10104000401A500AC4CF9301240D351D220F331FBF
:101050002C7F33702A0D3B1DCACF820103701127EC
:101060000115110521F582010E1B1F0B000F111F29
:10107000087F17700E0D1F1DD8012C9111963C9101
:10108000119712964C91129713965C9113971496A0
:101090006C91149715967C91159716968C911697CE
:1010A00017969C9100E30E942612822FBFCF013039
:1010B000110511F50E1B1F0B040D151D000F111F3F
:1010C000087F17700E0D1F1DD8012C9111963C91B1
:1010D000119712964C91129713965C911397149650
:1010E0006C91149715967C91159716968C9116977E
:1010F00017969C9100E2D7CF0230110511F50E1B17
:101100001F0B040D151D000F111F087F17700E0D0A
:101110001F1DD8012C9111963C91119712964C915C
:10112000129713965C91139714966C9114971596D9
:101130007C91159716968C91169717969C9100E1C5
:10114000B2CF9101240D351D220F331F287F377038
:101150002E0D3F1D4CCFC30101978B37910530F405
:10116000C301880F991F2817390729F063E070E041
:1011700080E190E084CDD201A60DB71DBDABACAB34
:1011800080913F0720904207312C220C331CA82E5F
:10119000B12C2A0C3B1C20914507B4E02B9F9001F9
:1011A0001124220D331DECA9FDA9E217F30718F055
:1011B00062E070E0DDCF26E030E030935C04209305
:1011C0005B0410935E0450925F044092600410929E
:1011D0006104609262046090430770904407C0907D
:1011E0004007D0904107DFAACEAA40913D07509119
:1011F0003E079201220F331F7A01E20EF31EFBAA73
:10120000EAAAD201A219B309C50180959095FC0103
:10121000E20DF31D2296FFAFEEAF22976101CA18CF
:10122000DB082496DFAECEAE2497ECA8FDA84E14C2
:101230005F0409F4D9C2F40147818085542F482FF7
:101240004A145B0488F4EAA9FBA951834083EAA904
:10125000FBA93296FBABEAAB1196FFEF4F1A5F0A80
:1012600002E0800E911CE1CF42145304C8F570E0F7
:1012700060E040FC20C02496EEADFFAD2497EA0F5D
:10128000FB1FEE0FFF1FEC7FF370CEA8DFA8EC0D65
:10129000FD1D008111812281338122273327BA016C
:1012A00055274427402B512B622B732B40835183AE
:1012B00062837383CCCF2296EEADFFAD2297EA0F07
:1012C000FB1FEE0FFF1FEC7FF370EEA8FFA8EE0DE3
:1012D000FF1D008111812281338100271127E2CF78
:1012E000C201837099276A01F12CE12C00E010E023
:1012F0009801C9A6DAA6EBA6FCA60DA71EA72FA7E4
:1013000038ABFD01009741F5EE0FFF1FE87FF77046
:10131000E60DF71DD080D9AAC180D280E380F48089
:10132000158129A53AA540E050E060E070E080E03A
:1013300090E000E30E940B1209A9202B20833C2996
:1013400031834D2942835E295383F62AF482172B79
:101350001583868397837BCF8130910541F5319644
:10136000EE0FFF1FE87FF770E60DF71D108119AB38
:10137000C180D280E380F680178129A53AA540E09C
:1013800050E060E070E080E090E000E20E940B122C
:1013900009A9202B20833C2931834D294283E52A4A
:1013A000E382648375838F298683912BD3CF029741
:1013B00029F53296EE0FFF1FE87FF770E60DF71D57
:1013C000108119ABC180D480E580F680178129A5F2
:1013D0003AA540E050E060E070E080E090E000E19D
:1013E0000E940B1209A9202B20833C2931834283C0
:1013F0005383D62AD482E72AE582D5CF3396EE0FDF
:10140000FF1FE87FF770E60DF71D19A510832AA5C9
:1014100021831DCFC301019763E070E0803D9740B9
:1014200068F520914807C201860D971D62E070E0C3
:101430002817190618F1C30113E0969587951A9598
:10144000E1F79C012D5F3F4F30935C0420935B04D8
:10145000930127703327232B29F0049690935C0483
:1014600080935B0480915B0490915C04EDE5F4E073
:10147000813021E0920728F064E070E081E090E0A4
:10148000FECB31969F012D5534402817390710F4B3
:101490001082F7CF91E090935E04835080935F04B5
:1014A000009146071091470770E060E020E0C12CF2
:1014B000D12C7601C394D701C601022E04C0880F37
:1014C000991FAA1FBB1F0A94D2F789A79AA7ABA797
:1014D000BCA7FB0133E0F695E7953A95E1F7E05AB2
:1014E000FB4F3081A201A3E056954795AA95E1F7FD
:1014F0004F715527400F511FDA014C9150E0B42D28
:10150000B77002C055954795BA95E2F789A540FF97
:101510000FC0832B80832F5F283009F420E0EFEF8A
:101520004E1A5E0A6F5F7F4F6616770621F6F9CB7B
:10153000809538233083EFCFC301019763E070E0DB
:10154000803D974068F520914E07C201860D971D9A
:1015500062E070E02817190618F1C30123E09695A0
:1015600087952A95E1F79C012D5F3F4F30935C04EE
:1015700020935B04930127703327232B29F00496D3
:1015800090935C0480935B0480915B0490915C0475
:10159000EDE5F4E0813001E0900728F064E070E0D0
:1015A00082E090E06CCB31969F012D553440281796
:1015B000390710F41082F7CF92E090935E048350C5
:1015C00080935F0460914C0770914D0750E040E0BC
:1015D00010E0C12CD12C7601C394D701C601012E95
:1015E00004C0880F991FAA1FBB1F0A94D2F789A7AE
:1015F0009AA7ABA7BCA7FA0103E0F695E7950A9571
:10160000E1F7E05AFB4F0081920183E03695279580
:101610008A95E1F7260F372F311DD9012C9130E043
:10162000B42DB77002C035952795BA95E2F789A514
:1016300020FF0FC0802B80831F5F183009F410E05B
:10164000EFEF4E1A5E0A4F5F5F4F6416750629F67C
:1016500068CB809508230083EFCFC301019763E037
:1016600070E08D37910550F420914B07C201860D33
:10167000971D2817190628F462E070E084E090E0D6
:10168000FECAC301880F991F039690935C04809350
:101690005B04EDE5F4E031969F012D5534402817A9
:1016A000390710F41082F7CF94E090935E048350D2
:1016B00080935F04440C551CE0914907F0914A0760
:1016C000E40DF51D01E0601A710812E0810E911C15
:1016D0002FEF6216720609F424CB80819181329635
:1016E000D40111969C93119712968C93EBCF6114B1
:1016F000BFEF7B0629F063E070E06114710449F4E8
:10170000809148078150990B8415950528F462E073
:1017100070E085E090E0B3CA41E06114EFEF7E062F
:1017200009F040E060E0C2010E947803FACAA30118
:10173000F3E056954795FA95E1F7842FB30167706A
:101740007727672B11F081E0840FA30141505109E5
:10175000403B574018F48217130629F063E070E00D
:101760008FE090E08CCA20914807C201860D971D3A
:101770002817190618F462E070E0F2CF86E090E0D6
:1017800090935C0480935B048FE080935E0450929E
:101790005F0440926004709261046092620410E001
:1017A00000E0F12CF80173E0F695E7957A95E1F702
:1017B000E35AFB4F478150E00F2C02C055954795E7
:1017C0000A94E2F7417060E0C201800F911F0E940D
:1017D0007803F394E8E0CE2EFC1001C0F12C0F5FEB
:1017E0001F4F60167106F1F600915B0410915C04C6
:1017F000780122E0E20EF11CF0925C04E0925B04BE
:101800000E943E03F801E35AFB4F9083818380914D
:10181000610587FD09C061E00E944E0180915D0570
:1018200090915E050E94DA018091620590916305B6
:10183000DC01ED91FC910280F381E02DA7016DE5C3
:1018400074E019958091620590916305DC01ED913A
:10185000FC910680F781E02D199580915D059091AE
:101860005E050E94DA018091610587FDF8C860E09D
:101870000E944E01F4C808E04016510408F075C0FB
:1018800018E06116710408F070C06414750408F45F
:101890006CC08201000F111F000F111F0A5F1D4F46
:1018A000520168E6862E64E0962E30E020E0D801F2
:1018B00012968D919C9142E0C42ED12C83309105DB
:1018C00041F0CC24C394D12C8F30910511F0D12C50
:1018D000C12C7601E20EF31EA701455F5F4F413038
:1018E000514008F040C0F80160817181833091055A
:1018F00021F00F9711F060E070E0A601C4010E9492
:1019000066138C0C9D1CC50101960C5F1F4F97013F
:1019100025016816790628F5C701079690935C049F
:1019200080935B0483E480935E048EE780935F047E
:101930001092600440926104809107089091080819
:101940002091090830910A083093620420936304BF
:101950009093640480936504F0926604E0926704B7
:10196000E0C95C01A4CF7901D7CF83E090E09093E8
:101970005C0480935B0483E480935E0481E829C067
:10198000F5E14F165104E0F48E010F5F1F4F38014F
:10199000F801D12CC12C12E0810E911C4C145D0475
:1019A000D9F0D40112968C91129713969C918927A5
:1019B0009827892781939193BFEFCB1ADB0AEBCF4E
:1019C00083E090E090935C0480935B0410935E044A
:1019D00082E880935F04A5C9912C812C40E0F12C12
:1019E000E12C8BE090E0C814D90409F447C0F3015E
:1019F000A190B1903F01F8E0AF16B10440F083E050
:101A000090E090935C0480935B0484E4B5CFF5018F
:101A1000EE0FFF1FEE0FFF1FDF01AA5FBD4F1296F3
:101A20002D913C9102E010E02330310539F001E0C6
:101A300010E02F30310511F010E000E02C01400ED5
:101A4000511E51E045165506C8F4EA5FFD4F60810E
:101A500071812330310529F02F30310511F060E01C
:101A600070E0A801835A9B4F0E946613E00EF11E9E
:101A70006FEF861A960A4A2DC201B5CF90935C0487
:101A800080935B0484E480935E048EE780935F041C
:101A900010926004409361044FCF88E048165104CF
:101AA00050F48091620490916304982789279827C5
:101AB0008A3F910540F083E090E090935C0480932E
:101AC0005B0482E459CFA201440F551F440F551FF8
:101AD000DA01AA5FBD4F12968D919C9120915A0414
:101AE000213099F04A5F5D4FDA010D911C91F110A0
:101AF0002FC08330910509F462C00F97A1F5D8017A
:101B000011968C9111978D7F45C08031910551F3CD
:101B100022E030E08330910539F021E030E08F3071
:101B2000910511F030E020E0D901B695A79570E05D
:101B300060E02D593B4F6A177B07A0F66091640463
:101B4000F901708170936404608361E070E0F3CF09
:101B50008330910529F18F30910581F08330910513
:101B600059F10F97D1F083E090E090935C0480935B
:101B70005B0482E480935E048EE72BCF41E050E06B
:101B800064E674E0C8010E946613D80111968C9136
:101B90001197826011968C93E6CF50E040E0F0CF31
:101BA00042E050E064E674E0C8010E946613F80168
:101BB000828182608283D7CF50E040E0F3CFF8018A
:101BC00082818D7FF7CF8E3D9D4A21F481E0809305
:101BD0005A047EC883E090E090935C0480935B0499
:101BE00077C830935C0420935B049BC81F920F92CC
:101BF0000FB60F9211242F933F938F939F93AF9320
:101C0000BF938091150890911608A0911708B09184
:101C100018083091140823E0230F2D3758F501964A
:101C2000A11DB11D209314088093150890931608E8
:101C3000A0931708B09318088091190890911A087A
:101C4000A0911B08B0911C080196A11DB11D8093A5
:101C5000190890931A08A0931B08B0931C08BF9111
:101C6000AF919F918F913F912F910F900FBE0F9049
:101C70001F90189526E8230F0296A11DB11DD2CF03
:101C80001F920F920FB60F9211240BB60F922F9343
:101C90003F934F935F936F937F938F939F93AF93F4
:101CA000BF93EF93FF938FE497E00E947E02FF9132
:101CB000EF91BF91AF919F918F917F916F915F91C4
:101CC0004F913F912F910F900BBE0F900FBE0F9031
:101CD0001F9018951F920F920FB60F9211240BB6FA
:101CE0000F922F938F939F93EF93FF93E0915F0752
:101CF000F09160078081E0916507F091660782FDB1
:101D00001DC09081809168078F5F8F732091690754
:101D1000821741F0E0916807F0E0E15BF84F958FA2
:101D200080936807FF91EF919F918F912F910F9072
:101D30000BBE0F900FBE0F901F9018958081F2CFB1
:101D4000789484B5826084BD84B5816084BD85B596
:101D5000826085BD85B5816085BD80916E008160A2
:101D600080936E0010928100809181008260809348
:101D7000810080918100816080938100809180004A
:101D80008160809380008091B10084608093B10075
:101D90008091B00081608093B0008091910082605A
:101DA0008093910080919100816080939100809157
:101DB00090008160809390008091A1008260809368
:101DC000A1008091A10081608093A1008091A0007A
:101DD00081608093A0008091210182608093210125
:101DE0008091210181608093210180912001816097
:101DF0008093200180917A00846080937A008091A2
:101E00007A00826080937A0080917A00816080936A
:101E10007A0080917A00806880937A001092C100E5
:101E200089E190E09093ED078093EC0786E490E0E1
:101E30009093F0078093EF078AE590E09093F30783
:101E40008093F2071092F5071092F7071092F907A6
:101E500081E08093FB078093FD07E0915F07F0919D
:101E6000600792E09083E0915B07F0915C0710823D
:101E7000E0915D07F0915E0790E190831092670713
:101E8000E0916307F091640796E09083E091610729
:101E9000F0916207908190619083E0916107F091E9
:101EA0006207908198609083E0916107F0916207EA
:101EB000908190689083E0916107F0916207908132
:101EC0009F7D90832FE437E0309363052093620574
:101ED0009FEF909361052EEE32E0309360052093E2
:101EE0005F0521E43AE030935E0520935D05809321
:101EF0003C0784E380933F0784E18093420780930B
:101F0000450788E38093480790E290934B078093BE
:101F10004E0787E090E00E9441129093470780931C
:101F20004607009709F451C0C7E0FC012C2F11921D
:101F30002A95E9F788E690E00E94411290933E07C7
:101F400080933D07009709F440C028E6FC011192F8
:101F50002A95E9F780E590E00E94411290934107AD
:101F600080934007009789F120E5FC0111922A95A2
:101F7000E9F780EA90E00E94411290934407809331
:101F80004307009711F120EAFC0111922A95E9F725
:101F900087E090E00E94411290934D0780934C0798
:101FA000009799F0FC011192CA95E9F780E490E05E
:101FB0000E94411290934A0780934907009729F0A5
:101FC00020E4FC0111922A95E9F7D0E0C0E08E01EF
:101FD000000F111F0453194FF80180819181892B43
:101FE00049F481E090E00E944112F80191838083DE
:101FF000FC0110822196C833D10549F7C0913D07F5
:10200000D0913E07ECE8F6E090E080E0219131913C
:10201000232B39F4DF0112979E01280F391F2D93CE
:102020003C9302968034910589F710E000E0C801E6
:10203000880F991F9C01245E394F7901F901808135
:102040009181892B49F481E090E00E944112F701CF
:1020500091838083FC0110820F5F1F4F08331105AD
:1020600031F72091490730914A07ECEDF5E090E017
:1020700080E041915191452B39F4DF011297A9017C
:10208000480F591F4D935C9302968034910589F750
:10209000E4EBF5E090E080E0C05CDF4F219131910E
:1020A000232B39F4DF0112979E01280F391F2D933E
:1020B0003C9302968832910589F7409140075091F0
:1020C0004107ECE8F5E090E080E021913191232B8D
:1020D00059F4DF0112979C01220F331F220F331F87
:1020E000240F351F2D933C9301968431910569F798
:1020F0004091430750914407E4E6F5E090E080E02A
:1021000021913191232B61F4DF0112979C0163E04F
:10211000220F331F6A95E1F7240F351F2D933C934F
:1021200001968431910561F780E29EE4A0E0B0E081
:1021300080930C0890930D08A0930E08B0930F089D
:102140000E94E501609310087093110880931208B3
:1021500090931308C1E00E94E501009110081091CE
:1021600011082091120830911308601B710B820B2B
:10217000930B00910C0810910D0820910E083091DE
:102180000F08601771078207930708F486C08091D3
:10219000070890910808A0910908B0910A080196D3
:1021A000A11DB11D8093070890930808A09309080A
:1021B000B0930A082091F80722708091F50750919A
:1021C000FA074091FC07882309F480C0211102C05E
:1021D0001092F70751FF1092F90741FF1092FB0789
:1021E0008091FE0781FF1092FD0780910308909176
:1021F0000408A0910508B0910608AC01BD01535D2B
:102200006E4C7E4F4115FAEC5F07FAE96F07FBE36E
:102210007F0708F0ABC04093030850930408609315
:102220000508709306080E94A40380910B08811191
:1022300018C0C0930B080E94E50100910C08109192
:102240000D0820910E0830910F08601B710B820B56
:10225000930B609310087093110880931208909369
:1022600013088091100890911108A0911208B09164
:10227000130840910C0850910D0860910E08709160
:102280000F08840F951FA61FB71F80931008909307
:102290001108A0931208B09313080E94E501009161
:1022A0001008109111082091120830911308601B3A
:1022B000710B820B930B603177428105910510F011
:1022C0000E94A40388950E940D0345CF3091EE072C
:1022D00032708091EC079091ED076091FD076623C5
:1022E00099F10196332399F18091EC079091ED07D4
:1022F000843191058CF53091FE0731FFC093FD07C5
:1023000021110BC021E06091EF077091F007861753
:1023100097070CF420E02093F70751FD0BC021E054
:102320006091F2077091F307861797070CF420E08D
:102330002093F90741FD59CF81E09091F907911160
:1023400080E08093FB0751CF3111CECF019790935E
:10235000ED078093EC07C8CF8C3491058CF2309157
:10236000FE0731FDCDCF1092FD07CACF4091FF0788
:102370005091000860910108709102089D59A9468A
:10238000BA438093030890930408A0930508B09380
:1023900006084F5F5F4F6F4F7F4F4093FF0750938B
:1023A000000860930108709302083DCFEFE4F7E066
:1023B0001382128288EE93E0A0E0B0E084839583DC
:1023C000A683B7838AE294E09183808385EC90E0D2
:1023D0009587848784EC90E09787868780EC90E0EF
:1023E000918B808B81EC90E0938B828B82EC90E0E0
:1023F000958B848B86EC90E0978B868B118E128E5A
:10240000138E148E0895EE0FFF1F881F8BBF079049
:10241000F691E02D1994002E083090F0982F872F18
:10242000762F652F542F432F322F22270850F4CFB9
:10243000220F331F441F551F661F771F881F991FC8
:102440000A95B2F7002D089597FD1094002E0830DC
:1024500098F00850232F342F452F562F672F782FB1
:10246000892F912DF4CF159497958795779567953A
:1024700057954795379527950A95AAF71124002D6A
:1024800008950F931F93CF93DF938230910510F43B
:1024900082E090E0E0911F08F091200830E020E019
:1024A000B0E0A0E0309799F42115310509F44AC055
:1024B000281B390B24303105D8F58A819B816115A1
:1024C000710589F1FB0193838283FE0111C0408174
:1024D00051810281138148175907E0F048175907C5
:1024E00099F4109761F012960C93129713961C931F
:1024F0003296CF01DF91CF911F910F9108950093F4
:102500001F0810932008F4CF2115310551F0421710
:10251000530738F0A901DB019A01BD01DF01F80181
:10252000C1CFEF01F9CF9093200880931F08CDCF42
:10253000FE01E20FF31F81939193225031093983F9
:102540002883D7CF20911D0830911E08232B41F4FA
:10255000209102023091030230931E0820931D083F
:1025600020910002309101022115310541F42DB76F
:102570003EB74091040250910502241B350BE091B7
:102580001D08F0911E08E217F307A0F42E1B3F0B65
:102590002817390778F0AC014E5F5F4F24173507D5
:1025A00048F04E0F5F1F50931E0840931D08819303
:1025B00091939FCFF0E0E0E09CCFCF93DF93009723
:1025C000E9F0FC01329713821282A0911F08B091AA
:1025D0002008ED0130E020E01097A1F42081318146
:1025E000820F931F20911D0830911E08281739076C
:1025F00009F061C0F0931E08E0931D08DF91CF91B0
:102600000895EA01CE17DF07E8F54A815B819E0154
:1026100041155105B1F7E901FB83EA8349915991CD
:10262000C40FD51FEC17FD0761F4808191810296DC
:10263000840F951FE90199838883828193819B830D
:102640008A83F0E0E0E012968D919C9113970097B9
:10265000B9F52D913C911197CD010296820F931FF0
:1026600020911D0830911E082817390739F6309738
:1026700051F51092200810921F08B0931E08A093E5
:102680001D08BCCFD383C28340815181840F951F25
:10269000C817D90761F44E5F5F4F88819981480F51
:1026A000591F518340838A819B81938382832115A3
:1026B000310509F0B0CFF0932008E0931F089ECFBA
:1026C000FD01DC01C0CF13821282D7CFFB01DC01F8
:1026D00002C001900D9241505040D8F70895F894EF
:0226E000FFCF2A
:1026E200000021088000EC070300EF070300F20757
:1026F2000300F5070F00F7070F00F9070F00FB07AC
:102702000F00FD070F0000C0C101C30302C2C606CD
:1027120007C705C5C404CC0C0DCD0FCFCE0E0ACA17
:10272200CB0BC90908C8D81819D91BDBDA1A1EDE67
:10273200DF1FDD1D1CDC14D4D515D71716D6D21217
:1027420013D311D1D010F03031F133F3F23236F627
:10275200F737F53534F43CFCFD3DFF3F3EFEFA3AD7
:102762003BFB39F9F83828E8E929EB2B2AEAEE2E67
:102772002FEF2DEDEC2CE42425E527E7E62622E2D7
:10278200E323E12120E0A06061A163A3A26266A627
:10279200A767A56564A46CACAD6DAF6F6EAEAA6A97
:1027A2006BAB69A9A86878B8B979BB7B7ABABE7EE7
:1027B2007FBF7DBDBC7CB47475B577B7B67672B297
:1027C200B373B17170B05090915193535292965627
:1027D2005797559594549C5C5D9D5F9F9E5E5A9A57
:1027E2009B5B99595898884849894B8B8A4A4E8EE7
:1027F2008F4F8D4D4C8C4484854587474686824257
:1028020043834181804000C1814001C0804101C0B9
:10281200804100C1814001C0804100C1814000C1AE
:10282200814001C0804101C0804100C1814000C19E
:10283200814001C0804100C1814001C0804101C08E
:10284200804100C1814001C0804100C1814000C17E
:10285200814001C0804100C1814001C0804101C06E
:10286200804100C1814000C1814001C0804101C05E
:10287200804100C1814001C0804100C1814000C14E
:10288200814001C0804101C0804100C1814000C13E
:10289200814001C0804100C1814001C0804101C02E
:1028A200804100C1814000C1814001C0804101C01E
:1028B200804100C1814001C0804100C1814000C10E
:1028C200814001C0804100C1814001C0804101C0FE
:1028D200804100C1814001C0804100C1814000C1EE
:1028E200814001C0804101C0804100C1814000C1DE
:1028F200814001C0804100C1814001C0804101C0CE
:10290200804100C1814000000000A0020A0237029B
:10291200ED02680246025A02363932666331613884
:102922003739306166623636396330353137613472
:0A2932003137373864396561000061
:00000001FF
